{
  "_format": "hh-sol-artifact-1",
  "contractName": "DiplomaIssuer",
  "sourceName": "contracts/DiplomaIssuer.sol",
  "abi": [
    {
      "inputs": [],
      "stateMutability": "nonpayable",
      "type": "constructor"
    },
    {
      "inputs": [],
      "name": "AccessControlBadConfirmation",
      "type": "error"
    },
    {
      "inputs": [
        {
          "internalType": "address",
          "name": "account",
          "type": "address"
        },
        {
          "internalType": "bytes32",
          "name": "neededRole",
          "type": "bytes32"
        }
      ],
      "name": "AccessControlUnauthorizedAccount",
      "type": "error"
    },
    {
      "anonymous": false,
      "inputs": [
        {
          "indexed": true,
          "internalType": "bytes32",
          "name": "diplomaHash",
          "type": "bytes32"
        },
        {
          "indexed": true,
          "internalType": "address",
          "name": "studentAddress",
          "type": "address"
        },
        {
          "indexed": true,
          "internalType": "address",
          "name": "institution",
          "type": "address"
        }
      ],
      "name": "DiplomaIssued",
      "type": "event"
    },
    {
      "anonymous": false,
      "inputs": [
        {
          "indexed": true,
          "internalType": "bytes32",
          "name": "diplomaHash",
          "type": "bytes32"
        },
        {
          "indexed": true,
          "internalType": "address",
          "name": "institution",
          "type": "address"
        }
      ],
      "name": "DiplomaRevoked",
      "type": "event"
    },
    {
      "anonymous": false,
      "inputs": [
        {
          "indexed": true,
          "internalType": "bytes32",
          "name": "role",
          "type": "bytes32"
        },
        {
          "indexed": true,
          "internalType": "bytes32",
          "name": "previousAdminRole",
          "type": "bytes32"
        },
        {
          "indexed": true,
          "internalType": "bytes32",
          "name": "newAdminRole",
          "type": "bytes32"
        }
      ],
      "name": "RoleAdminChanged",
      "type": "event"
    },
    {
      "anonymous": false,
      "inputs": [
        {
          "indexed": true,
          "internalType": "bytes32",
          "name": "role",
          "type": "bytes32"
        },
        {
          "indexed": true,
          "internalType": "address",
          "name": "account",
          "type": "address"
        },
        {
          "indexed": true,
          "internalType": "address",
          "name": "sender",
          "type": "address"
        }
      ],
      "name": "RoleGranted",
      "type": "event"
    },
    {
      "anonymous": false,
      "inputs": [
        {
          "indexed": true,
          "internalType": "bytes32",
          "name": "role",
          "type": "bytes32"
        },
        {
          "indexed": true,
          "internalType": "address",
          "name": "account",
          "type": "address"
        },
        {
          "indexed": true,
          "internalType": "address",
          "name": "sender",
          "type": "address"
        }
      ],
      "name": "RoleRevoked",
      "type": "event"
    },
    {
      "inputs": [],
      "name": "DEFAULT_ADMIN_ROLE",
      "outputs": [
        {
          "internalType": "bytes32",
          "name": "",
          "type": "bytes32"
        }
      ],
      "stateMutability": "view",
      "type": "function"
    },
    {
      "inputs": [],
      "name": "INSTITUTION_ROLE",
      "outputs": [
        {
          "internalType": "bytes32",
          "name": "",
          "type": "bytes32"
        }
      ],
      "stateMutability": "view",
      "type": "function"
    },
    {
      "inputs": [
        {
          "internalType": "address",
          "name": "institution",
          "type": "address"
        }
      ],
      "name": "addInstitution",
      "outputs": [],
      "stateMutability": "nonpayable",
      "type": "function"
    },
    {
      "inputs": [
        {
          "internalType": "bytes32",
          "name": "",
          "type": "bytes32"
        }
      ],
      "name": "diplomas",
      "outputs": [
        {
          "internalType": "bytes32",
          "name": "diplomaHash",
          "type": "bytes32"
        },
        {
          "internalType": "address",
          "name": "studentAddress",
          "type": "address"
        },
        {
          "internalType": "uint256",
          "name": "issueDate",
          "type": "uint256"
        },
        {
          "internalType": "bool",
          "name": "isValid",
          "type": "bool"
        },
        {
          "internalType": "string",
          "name": "metadataURI",
          "type": "string"
        }
      ],
      "stateMutability": "view",
      "type": "function"
    },
    {
      "inputs": [
        {
          "internalType": "bytes32",
          "name": "diplomaHash",
          "type": "bytes32"
        }
      ],
      "name": "getDiplomaInfo",
      "outputs": [
        {
          "internalType": "bool",
          "name": "isValid",
          "type": "bool"
        },
        {
          "internalType": "address",
          "name": "student",
          "type": "address"
        },
        {
          "internalType": "uint256",
          "name": "issueDate",
          "type": "uint256"
        },
        {
          "internalType": "string",
          "name": "metadata",
          "type": "string"
        }
      ],
      "stateMutability": "view",
      "type": "function"
    },
    {
      "inputs": [
        {
          "internalType": "bytes32",
          "name": "role",
          "type": "bytes32"
        }
      ],
      "name": "getRoleAdmin",
      "outputs": [
        {
          "internalType": "bytes32",
          "name": "",
          "type": "bytes32"
        }
      ],
      "stateMutability": "view",
      "type": "function"
    },
    {
      "inputs": [
        {
          "internalType": "bytes32",
          "name": "role",
          "type": "bytes32"
        },
        {
          "internalType": "address",
          "name": "account",
          "type": "address"
        }
      ],
      "name": "grantRole",
      "outputs": [],
      "stateMutability": "nonpayable",
      "type": "function"
    },
    {
      "inputs": [
        {
          "internalType": "bytes32",
          "name": "role",
          "type": "bytes32"
        },
        {
          "internalType": "address",
          "name": "account",
          "type": "address"
        }
      ],
      "name": "hasRole",
      "outputs": [
        {
          "internalType": "bool",
          "name": "",
          "type": "bool"
        }
      ],
      "stateMutability": "view",
      "type": "function"
    },
    {
      "inputs": [
        {
          "internalType": "bytes32",
          "name": "",
          "type": "bytes32"
        }
      ],
      "name": "isDiplomaRegistered",
      "outputs": [
        {
          "internalType": "bool",
          "name": "",
          "type": "bool"
        }
      ],
      "stateMutability": "view",
      "type": "function"
    },
    {
      "inputs": [
        {
          "internalType": "bytes32",
          "name": "diplomaHash",
          "type": "bytes32"
        },
        {
          "internalType": "address",
          "name": "studentAddress",
          "type": "address"
        },
        {
          "internalType": "string",
          "name": "metadataURI",
          "type": "string"
        }
      ],
      "name": "issueDiploma",
      "outputs": [],
      "stateMutability": "nonpayable",
      "type": "function"
    },
    {
      "inputs": [
        {
          "internalType": "bytes32",
          "name": "role",
          "type": "bytes32"
        },
        {
          "internalType": "address",
          "name": "callerConfirmation",
          "type": "address"
        }
      ],
      "name": "renounceRole",
      "outputs": [],
      "stateMutability": "nonpayable",
      "type": "function"
    },
    {
      "inputs": [
        {
          "internalType": "bytes32",
          "name": "diplomaHash",
          "type": "bytes32"
        }
      ],
      "name": "revokeDiploma",
      "outputs": [],
      "stateMutability": "nonpayable",
      "type": "function"
    },
    {
      "inputs": [
        {
          "internalType": "bytes32",
          "name": "role",
          "type": "bytes32"
        },
        {
          "internalType": "address",
          "name": "account",
          "type": "address"
        }
      ],
      "name": "revokeRole",
      "outputs": [],
      "stateMutability": "nonpayable",
      "type": "function"
    },
    {
      "inputs": [
        {
          "internalType": "bytes4",
          "name": "interfaceId",
          "type": "bytes4"
        }
      ],
      "name": "supportsInterface",
      "outputs": [
        {
          "internalType": "bool",
          "name": "",
          "type": "bool"
        }
      ],
      "stateMutability": "view",
      "type": "function"
    }
  ],
  "bytecode": "0x60806040523480156200001157600080fd5b50620000276000801b336200006160201b60201c565b506200005a7f01f18e249044142f95a61b39bad5f99f3c70699c83bb85a1ad87fe9e68bd85d1336200006160201b60201c565b50620001d6565b60006200007583836200016460201b60201c565b6200015957600160008085815260200190815260200160002060000160008473ffffffffffffffffffffffffffffffffffffffff1673ffffffffffffffffffffffffffffffffffffffff16815260200190815260200160002060006101000a81548160ff021916908315150217905550620000f5620001ce60201b60201c565b73ffffffffffffffffffffffffffffffffffffffff168273ffffffffffffffffffffffffffffffffffffffff16847f2f8788117e7eff1d82e926ec794901d17c78024a50270940304540a733656f0d60405160405180910390a4600190506200015e565b600090505b92915050565b600080600084815260200190815260200160002060000160008373ffffffffffffffffffffffffffffffffffffffff1673ffffffffffffffffffffffffffffffffffffffff16815260200190815260200160002060009054906101000a900460ff16905092915050565b600033905090565b6117ba80620001e66000396000f3fe608060405234801561001057600080fd5b50600436106100ea5760003560e01c8063a217fddf1161008c578063cd42619211610066578063cd4261921461025f578063d547741f1461027b578063e95ca0a414610297578063f307286f146102c7576100ea565b8063a217fddf14610209578063af5b229114610227578063c487da7914610243576100ea565b80632f2ff15d116100c85780632f2ff15d1461016d57806336568abe146101895780636e1cca25146101a557806391d14854146101d9576100ea565b806301ffc9a7146100ef5780631b929c211461011f578063248a9ca31461013d575b600080fd5b61010960048036038101906101049190610e10565b6102fa565b6040516101169190610e58565b60405180910390f35b610127610374565b6040516101349190610e8c565b60405180910390f35b61015760048036038101906101529190610ed3565b610398565b6040516101649190610e8c565b60405180910390f35b61018760048036038101906101829190610f5e565b6103b7565b005b6101a3600480360381019061019e9190610f5e565b6103d9565b005b6101bf60048036038101906101ba9190610ed3565b610454565b6040516101d0959493929190611056565b60405180910390f35b6101f360048036038101906101ee9190610f5e565b61053f565b6040516102009190610e58565b60405180910390f35b6102116105a9565b60405161021e9190610e8c565b60405180910390f35b610241600480360381019061023c91906110b0565b6105b0565b005b61025d60048036038101906102589190610ed3565b6105eb565b005b61027960048036038101906102749190611212565b61074f565b005b61029560048036038101906102909190610f5e565b61094e565b005b6102b160048036038101906102ac9190610ed3565b610970565b6040516102be9190610e58565b60405180910390f35b6102e160048036038101906102dc9190610ed3565b610990565b6040516102f19493929190611281565b60405180910390f35b60007f7965db0b000000000000000000000000000000000000000000000000000000007bffffffffffffffffffffffffffffffffffffffffffffffffffffffff1916827bffffffffffffffffffffffffffffffffffffffffffffffffffffffff1916148061036d575061036c82610aea565b5b9050919050565b7f01f18e249044142f95a61b39bad5f99f3c70699c83bb85a1ad87fe9e68bd85d181565b6000806000838152602001908152602001600020600101549050919050565b6103c082610398565b6103c981610b54565b6103d38383610b68565b50505050565b6103e1610c59565b73ffffffffffffffffffffffffffffffffffffffff168173ffffffffffffffffffffffffffffffffffffffff1614610445576040517f6697b23200000000000000000000000000000000000000000000000000000000815260040160405180910390fd5b61044f8282610c61565b505050565b60016020528060005260406000206000915090508060000154908060010160009054906101000a900473ffffffffffffffffffffffffffffffffffffffff16908060020154908060030160009054906101000a900460ff16908060040180546104bc906112fc565b80601f01602080910402602001604051908101604052809291908181526020018280546104e8906112fc565b80156105355780601f1061050a57610100808354040283529160200191610535565b820191906000526020600020905b81548152906001019060200180831161051857829003601f168201915b5050505050905085565b600080600084815260200190815260200160002060000160008373ffffffffffffffffffffffffffffffffffffffff1673ffffffffffffffffffffffffffffffffffffffff16815260200190815260200160002060009054906101000a900460ff16905092915050565b6000801b81565b6000801b6105bd81610b54565b6105e77f01f18e249044142f95a61b39bad5f99f3c70699c83bb85a1ad87fe9e68bd85d1836103b7565b5050565b7f01f18e249044142f95a61b39bad5f99f3c70699c83bb85a1ad87fe9e68bd85d161061581610b54565b6002600083815260200190815260200160002060009054906101000a900460ff16610675576040517f08c379a000000000000000000000000000000000000000000000000000000000815260040161066c90611379565b60405180910390fd5b6001600083815260200190815260200160002060030160009054906101000a900460ff166106d8576040517f08c379a00000000000000000000000000000000000000000000000000000000081526004016106cf906113e5565b60405180910390fd5b60006001600084815260200190815260200160002060030160006101000a81548160ff0219169083151502179055503373ffffffffffffffffffffffffffffffffffffffff16827fdd567030ad206e93bf840ff755cd298cdc932eaebf384a4983ed73d00769584c60405160405180910390a35050565b7f01f18e249044142f95a61b39bad5f99f3c70699c83bb85a1ad87fe9e68bd85d161077981610b54565b6002600085815260200190815260200160002060009054906101000a900460ff16156107da576040517f08c379a00000000000000000000000000000000000000000000000000000000081526004016107d190611451565b60405180910390fd5b6040518060a001604052808581526020018473ffffffffffffffffffffffffffffffffffffffff16815260200142815260200160011515815260200183815250600160008681526020019081526020016000206000820151816000015560208201518160010160006101000a81548173ffffffffffffffffffffffffffffffffffffffff021916908373ffffffffffffffffffffffffffffffffffffffff1602179055506040820151816002015560608201518160030160006101000a81548160ff02191690831515021790555060808201518160040190816108bd919061161d565b5090505060016002600086815260200190815260200160002060006101000a81548160ff0219169083151502179055503373ffffffffffffffffffffffffffffffffffffffff168373ffffffffffffffffffffffffffffffffffffffff16857fd4626a233f6c3e5b4bdf1c24ad4aab0117b1e4907c89b2062ddde1e1a45b746260405160405180910390a450505050565b61095782610398565b61096081610b54565b61096a8383610c61565b50505050565b60026020528060005260406000206000915054906101000a900460ff1681565b600080600060606002600086815260200190815260200160002060009054906101000a900460ff166109f7576040517f08c379a00000000000000000000000000000000000000000000000000000000081526004016109ee9061173b565b60405180910390fd5b60006001600087815260200190815260200160002090508060030160009054906101000a900460ff168160010160009054906101000a900473ffffffffffffffffffffffffffffffffffffffff16826002015483600401808054610a5a906112fc565b80601f0160208091040260200160405190810160405280929190818152602001828054610a86906112fc565b8015610ad35780601f10610aa857610100808354040283529160200191610ad3565b820191906000526020600020905b815481529060010190602001808311610ab657829003601f168201915b505050505090509450945094509450509193509193565b60007f01ffc9a7000000000000000000000000000000000000000000000000000000007bffffffffffffffffffffffffffffffffffffffffffffffffffffffff1916827bffffffffffffffffffffffffffffffffffffffffffffffffffffffff1916149050919050565b610b6581610b60610c59565b610d53565b50565b6000610b74838361053f565b610c4e57600160008085815260200190815260200160002060000160008473ffffffffffffffffffffffffffffffffffffffff1673ffffffffffffffffffffffffffffffffffffffff16815260200190815260200160002060006101000a81548160ff021916908315150217905550610beb610c59565b73ffffffffffffffffffffffffffffffffffffffff168273ffffffffffffffffffffffffffffffffffffffff16847f2f8788117e7eff1d82e926ec794901d17c78024a50270940304540a733656f0d60405160405180910390a460019050610c53565b600090505b92915050565b600033905090565b6000610c6d838361053f565b15610d4857600080600085815260200190815260200160002060000160008473ffffffffffffffffffffffffffffffffffffffff1673ffffffffffffffffffffffffffffffffffffffff16815260200190815260200160002060006101000a81548160ff021916908315150217905550610ce5610c59565b73ffffffffffffffffffffffffffffffffffffffff168273ffffffffffffffffffffffffffffffffffffffff16847ff6391f5c32d9c69d2a47ea670b442974b53935d1edc7fd64eb21e047a839171b60405160405180910390a460019050610d4d565b600090505b92915050565b610d5d828261053f565b610da05780826040517fe2517d3f000000000000000000000000000000000000000000000000000000008152600401610d9792919061175b565b60405180910390fd5b5050565b6000604051905090565b600080fd5b600080fd5b60007fffffffff0000000000000000000000000000000000000000000000000000000082169050919050565b610ded81610db8565b8114610df857600080fd5b50565b600081359050610e0a81610de4565b92915050565b600060208284031215610e2657610e25610dae565b5b6000610e3484828501610dfb565b91505092915050565b60008115159050919050565b610e5281610e3d565b82525050565b6000602082019050610e6d6000830184610e49565b92915050565b6000819050919050565b610e8681610e73565b82525050565b6000602082019050610ea16000830184610e7d565b92915050565b610eb081610e73565b8114610ebb57600080fd5b50565b600081359050610ecd81610ea7565b92915050565b600060208284031215610ee957610ee8610dae565b5b6000610ef784828501610ebe565b91505092915050565b600073ffffffffffffffffffffffffffffffffffffffff82169050919050565b6000610f2b82610f00565b9050919050565b610f3b81610f20565b8114610f4657600080fd5b50565b600081359050610f5881610f32565b92915050565b60008060408385031215610f7557610f74610dae565b5b6000610f8385828601610ebe565b9250506020610f9485828601610f49565b9150509250929050565b610fa781610f20565b82525050565b6000819050919050565b610fc081610fad565b82525050565b600081519050919050565b600082825260208201905092915050565b60005b83811015611000578082015181840152602081019050610fe5565b60008484015250505050565b6000601f19601f8301169050919050565b600061102882610fc6565b6110328185610fd1565b9350611042818560208601610fe2565b61104b8161100c565b840191505092915050565b600060a08201905061106b6000830188610e7d565b6110786020830187610f9e565b6110856040830186610fb7565b6110926060830185610e49565b81810360808301526110a4818461101d565b90509695505050505050565b6000602082840312156110c6576110c5610dae565b5b60006110d484828501610f49565b91505092915050565b600080fd5b600080fd5b7f4e487b7100000000000000000000000000000000000000000000000000000000600052604160045260246000fd5b61111f8261100c565b810181811067ffffffffffffffff8211171561113e5761113d6110e7565b5b80604052505050565b6000611151610da4565b905061115d8282611116565b919050565b600067ffffffffffffffff82111561117d5761117c6110e7565b5b6111868261100c565b9050602081019050919050565b82818337600083830152505050565b60006111b56111b084611162565b611147565b9050828152602081018484840111156111d1576111d06110e2565b5b6111dc848285611193565b509392505050565b600082601f8301126111f9576111f86110dd565b5b81356112098482602086016111a2565b91505092915050565b60008060006060848603121561122b5761122a610dae565b5b600061123986828701610ebe565b935050602061124a86828701610f49565b925050604084013567ffffffffffffffff81111561126b5761126a610db3565b5b611277868287016111e4565b9150509250925092565b60006080820190506112966000830187610e49565b6112a36020830186610f9e565b6112b06040830185610fb7565b81810360608301526112c2818461101d565b905095945050505050565b7f4e487b7100000000000000000000000000000000000000000000000000000000600052602260045260246000fd5b6000600282049050600182168061131457607f821691505b602082108103611327576113266112cd565b5b50919050565b7f4469706c6f6d61206e6f7420666f756e64000000000000000000000000000000600082015250565b6000611363601183610fd1565b915061136e8261132d565b602082019050919050565b6000602082019050818103600083015261139281611356565b9050919050565b7f4469706c6f6d6120616c7265616479207265766f6b6564000000000000000000600082015250565b60006113cf601783610fd1565b91506113da82611399565b602082019050919050565b600060208201905081810360008301526113fe816113c2565b9050919050565b7f4469706c6f6d6120616c72656164792072656769737465726564000000000000600082015250565b600061143b601a83610fd1565b915061144682611405565b602082019050919050565b6000602082019050818103600083015261146a8161142e565b9050919050565b60008190508160005260206000209050919050565b60006020601f8301049050919050565b600082821b905092915050565b6000600883026114d37fffffffffffffffffffffffffffffffffffffffffffffffffffffffffffffffff82611496565b6114dd8683611496565b95508019841693508086168417925050509392505050565b6000819050919050565b600061151a61151561151084610fad565b6114f5565b610fad565b9050919050565b6000819050919050565b611534836114ff565b61154861154082611521565b8484546114a3565b825550505050565b600090565b61155d611550565b61156881848461152b565b505050565b5b8181101561158c57611581600082611555565b60018101905061156e565b5050565b601f8211156115d1576115a281611471565b6115ab84611486565b810160208510156115ba578190505b6115ce6115c685611486565b83018261156d565b50505b505050565b600082821c905092915050565b60006115f4600019846008026115d6565b1980831691505092915050565b600061160d83836115e3565b9150826002028217905092915050565b61162682610fc6565b67ffffffffffffffff81111561163f5761163e6110e7565b5b61164982546112fc565b611654828285611590565b600060209050601f8311600181146116875760008415611675578287015190505b61167f8582611601565b8655506116e7565b601f19841661169586611471565b60005b828110156116bd57848901518255600182019150602085019450602081019050611698565b868310156116da57848901516116d6601f8916826115e3565b8355505b6001600288020188555050505b505050505050565b7f4469706c6f6d61206e6f74207265676973746572656400000000000000000000600082015250565b6000611725601683610fd1565b9150611730826116ef565b602082019050919050565b6000602082019050818103600083015261175481611718565b9050919050565b60006040820190506117706000830185610f9e565b61177d6020830184610e7d565b939250505056fea2646970667358221220cc5470986c0612e951aa55ec56362f698f540160e39a6235599399278be1c23464736f6c63430008140033",
  "linkReferences": {},
  "deployedLinkReferences": {}
}