{
  "_format": "hh-sol-artifact-1",
  "contractName": "DiplomaVerifier",
  "sourceName": "contracts/DiplomaVerifier.sol",
  "abi": [
    {
      "inputs": [
        {
          "internalType": "address",
          "name": "_issuerAddress",
          "type": "address"
        }
      ],
      "stateMutability": "nonpayable",
      "type": "constructor"
    },
    {
      "inputs": [
        {
          "internalType": "bytes32",
          "name": "diplomaHash",
          "type": "bytes32"
        }
      ],
      "name": "getFullVerification",
      "outputs": [
        {
          "internalType": "bool",
          "name": "isValid",
          "type": "bool"
        },
        {
          "internalType": "address",
          "name": "student",
          "type": "address"
        },
        {
          "internalType": "uint256",
          "name": "issueDate",
          "type": "uint256"
        },
        {
          "internalType": "string",
          "name": "metadata",
          "type": "string"
        }
      ],
      "stateMutability": "view",
      "type": "function"
    },
    {
      "inputs": [],
      "name": "issuerContract",
      "outputs": [
        {
          "internalType": "contract DiplomaIssuer",
          "name": "",
          "type": "address"
        }
      ],
      "stateMutability": "view",
      "type": "function"
    },
    {
      "inputs": [
        {
          "internalType": "bytes32",
          "name": "diplomaHash",
          "type": "bytes32"
        }
      ],
      "name": "verify",
      "outputs": [
        {
          "internalType": "bool",
          "name": "isValid",
          "type": "bool"
        }
      ],
      "stateMutability": "view",
      "type": "function"
    }
  ],
  "bytecode": "0x608060405234801561001057600080fd5b50604051610856380380610856833981810160405281019061003291906100db565b806000806101000a81548173ffffffffffffffffffffffffffffffffffffffff021916908373ffffffffffffffffffffffffffffffffffffffff16021790555050610108565b600080fd5b600073ffffffffffffffffffffffffffffffffffffffff82169050919050565b60006100a88261007d565b9050919050565b6100b88161009d565b81146100c357600080fd5b50565b6000815190506100d5816100af565b92915050565b6000602082840312156100f1576100f0610078565b5b60006100ff848285016100c6565b91505092915050565b61073f806101176000396000f3fe608060405234801561001057600080fd5b50600436106100415760003560e01c80630c43ae9c1461004657806375e3661614610064578063d0839be814610094575b600080fd5b61004e6100c7565b60405161005b91906102d4565b60405180910390f35b61007e60048036038101906100799190610339565b6100eb565b60405161008b9190610381565b60405180910390f35b6100ae60048036038101906100a99190610339565b6101a0565b6040516100be9493929190610466565b60405180910390f35b60008054906101000a900473ffffffffffffffffffffffffffffffffffffffff1681565b60008060009054906101000a900473ffffffffffffffffffffffffffffffffffffffff1673ffffffffffffffffffffffffffffffffffffffff1663f307286f836040518263ffffffff1660e01b815260040161014791906104c1565b600060405180830381865afa92505050801561018657506040513d6000823e3d601f19601f820116820180604052508101906101839190610686565b60015b610193576000905061019b565b839450505050505b919050565b6000806000606060008054906101000a900473ffffffffffffffffffffffffffffffffffffffff1673ffffffffffffffffffffffffffffffffffffffff1663f307286f866040518263ffffffff1660e01b815260040161020091906104c1565b600060405180830381865afa15801561021d573d6000803e3d6000fd5b505050506040513d6000823e3d601f19601f820116820180604052508101906102469190610686565b93509350935093509193509193565b600073ffffffffffffffffffffffffffffffffffffffff82169050919050565b6000819050919050565b600061029a61029561029084610255565b610275565b610255565b9050919050565b60006102ac8261027f565b9050919050565b60006102be826102a1565b9050919050565b6102ce816102b3565b82525050565b60006020820190506102e960008301846102c5565b92915050565b6000604051905090565b600080fd5b600080fd5b6000819050919050565b61031681610303565b811461032157600080fd5b50565b6000813590506103338161030d565b92915050565b60006020828403121561034f5761034e6102f9565b5b600061035d84828501610324565b91505092915050565b60008115159050919050565b61037b81610366565b82525050565b60006020820190506103966000830184610372565b92915050565b60006103a782610255565b9050919050565b6103b78161039c565b82525050565b6000819050919050565b6103d0816103bd565b82525050565b600081519050919050565b600082825260208201905092915050565b60005b838110156104105780820151818401526020810190506103f5565b60008484015250505050565b6000601f19601f8301169050919050565b6000610438826103d6565b61044281856103e1565b93506104528185602086016103f2565b61045b8161041c565b840191505092915050565b600060808201905061047b6000830187610372565b61048860208301866103ae565b61049560408301856103c7565b81810360608301526104a7818461042d565b905095945050505050565b6104bb81610303565b82525050565b60006020820190506104d660008301846104b2565b92915050565b6104e581610366565b81146104f057600080fd5b50565b600081519050610502816104dc565b92915050565b6105118161039c565b811461051c57600080fd5b50565b60008151905061052e81610508565b92915050565b61053d816103bd565b811461054857600080fd5b50565b60008151905061055a81610534565b92915050565b600080fd5b600080fd5b7f4e487b7100000000000000000000000000000000000000000000000000000000600052604160045260246000fd5b6105a28261041c565b810181811067ffffffffffffffff821117156105c1576105c061056a565b5b80604052505050565b60006105d46102ef565b90506105e08282610599565b919050565b600067ffffffffffffffff821115610600576105ff61056a565b5b6106098261041c565b9050602081019050919050565b6000610629610624846105e5565b6105ca565b90508281526020810184848401111561064557610644610565565b5b6106508482856103f2565b509392505050565b600082601f83011261066d5761066c610560565b5b815161067d848260208601610616565b91505092915050565b600080600080608085870312156106a05761069f6102f9565b5b60006106ae878288016104f3565b94505060206106bf8782880161051f565b93505060406106d08782880161054b565b925050606085015167ffffffffffffffff8111156106f1576106f06102fe565b5b6106fd87828801610658565b9150509295919450925056fea26469706673582212208060707f0daff7231ae346a57325aaf960e7592cabd8512c8232cfda1ba1089964736f6c63430008140033",
  "linkReferences": {},
  "deployedLinkReferences": {}
}